{
  "_format": "hh-sol-artifact-1",
  "contractName": "Reserve",
  "sourceName": "contracts/Reserve.sol",
  "abi": [
    {
      "inputs": [],
      "stateMutability": "nonpayable",
      "type": "constructor"
    },
    {
      "anonymous": false,
      "inputs": [
        {
          "indexed": false,
          "internalType": "address",
          "name": "sender",
          "type": "address"
        },
        {
          "indexed": false,
          "internalType": "uint256",
          "name": "amount",
          "type": "uint256"
        }
      ],
      "name": "Received",
      "type": "event"
    },
    {
      "anonymous": false,
      "inputs": [
        {
          "indexed": false,
          "internalType": "address",
          "name": "receiver",
          "type": "address"
        },
        {
          "indexed": false,
          "internalType": "uint256",
          "name": "amount",
          "type": "uint256"
        }
      ],
      "name": "WithdrawSuccess",
      "type": "event"
    },
    {
      "inputs": [],
      "name": "withdraw",
      "outputs": [],
      "stateMutability": "nonpayable",
      "type": "function"
    },
    {
      "stateMutability": "payable",
      "type": "receive"
    }
  ],
  "bytecode": "0x608060405234801561001057600080fd5b50336000806101000a81548173ffffffffffffffffffffffffffffffffffffffff021916908373ffffffffffffffffffffffffffffffffffffffff1602179055506102ca806100606000396000f3fe6080604052600436106100225760003560e01c80633ccfd60b1461006757610062565b36610062577f88a5966d370b9919b20f3e2c13ff65706f196a4e32cc2c12bf57088f8852587433346040516100589291906101d5565b60405180910390a1005b600080fd5b34801561007357600080fd5b5061007c61007e565b005b60008054906101000a900473ffffffffffffffffffffffffffffffffffffffff1673ffffffffffffffffffffffffffffffffffffffff163373ffffffffffffffffffffffffffffffffffffffff161461010c576040517f08c379a0000000000000000000000000000000000000000000000000000000008152600401610103906101fe565b60405180910390fd5b60004790503373ffffffffffffffffffffffffffffffffffffffff166108fc829081150290604051600060405180830381858888f19350505050158015610157573d6000803e3d6000fd5b507f95e1b0070dbccc052f124fa5143644dca4cc74c53bf1d0fe68ff7295f61cdc0c33826040516101899291906101d5565b60405180910390a150565b61019d8161022f565b82525050565b60006101b060178361021e565b91506101bb8261026b565b602082019050919050565b6101cf81610261565b82525050565b60006040820190506101ea6000830185610194565b6101f760208301846101c6565b9392505050565b60006020820190508181036000830152610217816101a3565b9050919050565b600082825260208201905092915050565b600061023a82610241565b9050919050565b600073ffffffffffffffffffffffffffffffffffffffff82169050919050565b6000819050919050565b7f4f6e6c79206f776e65722063616e20776974686472617700000000000000000060008201525056fea2646970667358221220bea881684ba8505a9480f39f97d4255ed245a98ca08827a271f2a23fa3f2049064736f6c63430008040033",
  "linkReferences": {},
  "deployedLinkReferences": {}
}