{
  "_format": "hh-sol-artifact-1",
  "contractName": "Staker",
  "sourceName": "contracts/Staker.sol",
  "abi": [
    {
      "inputs": [],
      "stateMutability": "nonpayable",
      "type": "constructor"
    },
    {
      "anonymous": false,
      "inputs": [
        {
          "indexed": false,
          "internalType": "address",
          "name": "receiver",
          "type": "address"
        },
        {
          "indexed": false,
          "internalType": "uint256",
          "name": "amount",
          "type": "uint256"
        }
      ],
      "name": "CompleteSuccess",
      "type": "event"
    },
    {
      "anonymous": false,
      "inputs": [
        {
          "indexed": false,
          "internalType": "address",
          "name": "sender",
          "type": "address"
        },
        {
          "indexed": false,
          "internalType": "uint256",
          "name": "amount",
          "type": "uint256"
        }
      ],
      "name": "StakeSuccess",
      "type": "event"
    },
    {
      "anonymous": false,
      "inputs": [
        {
          "indexed": false,
          "internalType": "address",
          "name": "receiver",
          "type": "address"
        },
        {
          "indexed": false,
          "internalType": "uint256",
          "name": "amount",
          "type": "uint256"
        }
      ],
      "name": "WithdrawSuccess",
      "type": "event"
    },
    {
      "inputs": [],
      "name": "complete",
      "outputs": [],
      "stateMutability": "nonpayable",
      "type": "function"
    },
    {
      "inputs": [],
      "name": "getDeadline",
      "outputs": [
        {
          "internalType": "uint256",
          "name": "",
          "type": "uint256"
        }
      ],
      "stateMutability": "view",
      "type": "function"
    },
    {
      "inputs": [],
      "name": "getHighestBidder",
      "outputs": [
        {
          "internalType": "address",
          "name": "",
          "type": "address"
        },
        {
          "internalType": "uint256",
          "name": "",
          "type": "uint256"
        }
      ],
      "stateMutability": "view",
      "type": "function"
    },
    {
      "inputs": [],
      "name": "stake",
      "outputs": [],
      "stateMutability": "payable",
      "type": "function"
    },
    {
      "inputs": [],
      "name": "withdraw",
      "outputs": [],
      "stateMutability": "nonpayable",
      "type": "function"
    }
  ],
  "bytecode": "0x60806040526202a300600355674563918244f4000060055534801561002357600080fd5b5060035442610032919061003d565b6004819055506100cc565b600061004882610093565b915061005383610093565b9250827fffffffffffffffffffffffffffffffffffffffffffffffffffffffffffffffff038211156100885761008761009d565b5b828201905092915050565b6000819050919050565b7f4e487b7100000000000000000000000000000000000000000000000000000000600052601160045260246000fd5b610a7f806100db6000396000f3fe6080604052600436106100495760003560e01c80623495a41461004e5780633a4b66f11461007a5780633ccfd60b14610084578063522e11771461009b5780635f8d96de146100b2575b600080fd5b34801561005a57600080fd5b506100636100dd565b60405161007192919061076a565b60405180910390f35b610082610113565b005b34801561009057600080fd5b50610099610337565b005b3480156100a757600080fd5b506100b0610506565b005b3480156100be57600080fd5b506100c761065b565b6040516100d49190610833565b60405180910390f35b600080600160000160009054906101000a900473ffffffffffffffffffffffffffffffffffffffff166001800154915091509091565b6004544210610157576040517f08c379a000000000000000000000000000000000000000000000000000000000815260040161014e90610793565b60405180910390fd5b6000341161019a576040517f08c379a000000000000000000000000000000000000000000000000000000000815260040161019190610813565b60405180910390fd5b6000803373ffffffffffffffffffffffffffffffffffffffff1673ffffffffffffffffffffffffffffffffffffffff16815260200190815260200160002054346101e4919061085f565b6000803373ffffffffffffffffffffffffffffffffffffffff1673ffffffffffffffffffffffffffffffffffffffff1681526020019081526020016000208190555060018001546000803373ffffffffffffffffffffffffffffffffffffffff1673ffffffffffffffffffffffffffffffffffffffff1681526020019081526020016000205411156102fc5733600160000160006101000a81548173ffffffffffffffffffffffffffffffffffffffff021916908373ffffffffffffffffffffffffffffffffffffffff1602179055506000803373ffffffffffffffffffffffffffffffffffffffff1673ffffffffffffffffffffffffffffffffffffffff1681526020019081526020016000205460018001819055505b7f2c465e70bcf9e8aebaaf19af663ec412551be6a6be1c8ee4446aca3a8de716ba333460405161032d92919061076a565b60405180910390a1565b600454421161037b576040517f08c379a0000000000000000000000000000000000000000000000000000000008152600401610372906107f3565b60405180910390fd5b60008060003373ffffffffffffffffffffffffffffffffffffffff1673ffffffffffffffffffffffffffffffffffffffff16815260200190815260200160002054116103fc576040517f08c379a00000000000000000000000000000000000000000000000000000000081526004016103f3906107b3565b60405180910390fd5b60008060003373ffffffffffffffffffffffffffffffffffffffff1673ffffffffffffffffffffffffffffffffffffffff16815260200190815260200160002054905060008060003373ffffffffffffffffffffffffffffffffffffffff1673ffffffffffffffffffffffffffffffffffffffff168152602001908152602001600020819055503373ffffffffffffffffffffffffffffffffffffffff166108fc829081150290604051600060405180830381858888f193505050501580156104c9573d6000803e3d6000fd5b507f95e1b0070dbccc052f124fa5143644dca4cc74c53bf1d0fe68ff7295f61cdc0c33826040516104fb92919061076a565b60405180910390a150565b600454421161054a576040517f08c379a0000000000000000000000000000000000000000000000000000000008152600401610541906107f3565b60405180910390fd5b60055447101561058f576040517f08c379a0000000000000000000000000000000000000000000000000000000008152600401610586906107d3565b60405180910390fd5b6000479050600660009054906101000a900473ffffffffffffffffffffffffffffffffffffffff1673ffffffffffffffffffffffffffffffffffffffff166108fc479081150290604051600060405180830381858888f193505050501580156105fc573d6000803e3d6000fd5b507f56ad8efd8f95cafa7e4b68ea6054961468aeecd7617df5a34f31a432222e555c600660009054906101000a900473ffffffffffffffffffffffffffffffffffffffff1682604051610650929190610741565b60405180910390a150565b6000600454905090565b61066e816108f1565b82525050565b61067d816108b5565b82525050565b6000610690601c8361084e565b915061069b82610956565b602082019050919050565b60006106b360178361084e565b91506106be8261097f565b602082019050919050565b60006106d660218361084e565b91506106e1826109a8565b604082019050919050565b60006106f960188361084e565b9150610704826109f7565b602082019050919050565b600061071c60178361084e565b915061072782610a20565b602082019050919050565b61073b816108e7565b82525050565b60006040820190506107566000830185610665565b6107636020830184610732565b9392505050565b600060408201905061077f6000830185610674565b61078c6020830184610732565b9392505050565b600060208201905081810360008301526107ac81610683565b9050919050565b600060208201905081810360008301526107cc816106a6565b9050919050565b600060208201905081810360008301526107ec816106c9565b9050919050565b6000602082019050818103600083015261080c816106ec565b9050919050565b6000602082019050818103600083015261082c8161070f565b9050919050565b60006020820190506108486000830184610732565b92915050565b600082825260208201905092915050565b600061086a826108e7565b9150610875836108e7565b9250827fffffffffffffffffffffffffffffffffffffffffffffffffffffffffffffffff038211156108aa576108a9610927565b5b828201905092915050565b60006108c0826108c7565b9050919050565b600073ffffffffffffffffffffffffffffffffffffffff82169050919050565b6000819050919050565b60006108fc82610903565b9050919050565b600061090e82610915565b9050919050565b6000610920826108c7565b9050919050565b7f4e487b7100000000000000000000000000000000000000000000000000000000600052601160045260246000fd5b7f446561646c696e6520666f72207374616b696e67206973207061737400000000600082015250565b7f4469646e2774207374616b6520616e7920616d6f756e74000000000000000000600082015250565b7f5374616b652062616c616e6365206e6f7420757020746f207468726573686f6c60008201527f6400000000000000000000000000000000000000000000000000000000000000602082015250565b7f5374616b696e67206973207374696c6c206f6e676f696e670000000000000000600082015250565b7f4e65656420746f207374616b6520616e20616d6f756e7400000000000000000060008201525056fea2646970667358221220cc41ecf4445f8300aaf3634f8036a0f6b44303fbd9debda16f62593bc5720c0164736f6c63430008040033",
  "linkReferences": {},
  "deployedLinkReferences": {}
}