{
  "_format": "hh-sol-artifact-1",
  "contractName": "Staker",
  "sourceName": "contracts/Staker.sol",
  "abi": [
    {
      "inputs": [],
      "stateMutability": "nonpayable",
      "type": "constructor"
    },
    {
      "anonymous": false,
      "inputs": [
        {
          "indexed": false,
          "internalType": "address",
          "name": "receiver",
          "type": "address"
        },
        {
          "indexed": false,
          "internalType": "uint256",
          "name": "amount",
          "type": "uint256"
        }
      ],
      "name": "CompleteSuccess",
      "type": "event"
    },
    {
      "anonymous": false,
      "inputs": [
        {
          "indexed": false,
          "internalType": "address",
          "name": "sender",
          "type": "address"
        },
        {
          "indexed": false,
          "internalType": "uint256",
          "name": "amount",
          "type": "uint256"
        }
      ],
      "name": "StakeSuccess",
      "type": "event"
    },
    {
      "anonymous": false,
      "inputs": [
        {
          "indexed": false,
          "internalType": "address",
          "name": "receiver",
          "type": "address"
        },
        {
          "indexed": false,
          "internalType": "uint256",
          "name": "amount",
          "type": "uint256"
        }
      ],
      "name": "WithdrawSuccess",
      "type": "event"
    },
    {
      "inputs": [],
      "name": "complete",
      "outputs": [],
      "stateMutability": "nonpayable",
      "type": "function"
    },
    {
      "inputs": [],
      "name": "stake",
      "outputs": [],
      "stateMutability": "payable",
      "type": "function"
    },
    {
      "inputs": [],
      "name": "withdraw",
      "outputs": [],
      "stateMutability": "nonpayable",
      "type": "function"
    }
  ],
  "bytecode": "0x60806040526202a300600155674563918244f4000060035534801561002357600080fd5b5060015442610032919061003d565b6002819055506100cc565b600061004882610093565b915061005383610093565b9250827fffffffffffffffffffffffffffffffffffffffffffffffffffffffffffffffff038211156100885761008761009d565b5b828201905092915050565b6000819050919050565b7f4e487b7100000000000000000000000000000000000000000000000000000000600052601160045260246000fd5b6108e2806100db6000396000f3fe6080604052600436106100345760003560e01c80633a4b66f1146100395780633ccfd60b14610043578063522e11771461005a575b600080fd5b610041610071565b005b34801561004f57600080fd5b506100586101bf565b005b34801561006657600080fd5b5061006f61038e565b005b60025442106100b5576040517f08c379a00000000000000000000000000000000000000000000000000000000081526004016100ac90610611565b60405180910390fd5b600034116100f8576040517f08c379a00000000000000000000000000000000000000000000000000000000081526004016100ef90610691565b60405180910390fd5b6000803373ffffffffffffffffffffffffffffffffffffffff1673ffffffffffffffffffffffffffffffffffffffff168152602001908152602001600020543461014291906106c2565b6000803373ffffffffffffffffffffffffffffffffffffffff1673ffffffffffffffffffffffffffffffffffffffff168152602001908152602001600020819055507f2c465e70bcf9e8aebaaf19af663ec412551be6a6be1c8ee4446aca3a8de716ba33346040516101b59291906105e8565b60405180910390a1565b6002544211610203576040517f08c379a00000000000000000000000000000000000000000000000000000000081526004016101fa90610671565b60405180910390fd5b60008060003373ffffffffffffffffffffffffffffffffffffffff1673ffffffffffffffffffffffffffffffffffffffff1681526020019081526020016000205411610284576040517f08c379a000000000000000000000000000000000000000000000000000000000815260040161027b90610631565b60405180910390fd5b60008060003373ffffffffffffffffffffffffffffffffffffffff1673ffffffffffffffffffffffffffffffffffffffff16815260200190815260200160002054905060008060003373ffffffffffffffffffffffffffffffffffffffff1673ffffffffffffffffffffffffffffffffffffffff168152602001908152602001600020819055503373ffffffffffffffffffffffffffffffffffffffff166108fc829081150290604051600060405180830381858888f19350505050158015610351573d6000803e3d6000fd5b507f95e1b0070dbccc052f124fa5143644dca4cc74c53bf1d0fe68ff7295f61cdc0c33826040516103839291906105e8565b60405180910390a150565b60025442116103d2576040517f08c379a00000000000000000000000000000000000000000000000000000000081526004016103c990610671565b60405180910390fd5b600354471015610417576040517f08c379a000000000000000000000000000000000000000000000000000000000815260040161040e90610651565b60405180910390fd5b6000479050600460009054906101000a900473ffffffffffffffffffffffffffffffffffffffff1673ffffffffffffffffffffffffffffffffffffffff166108fc479081150290604051600060405180830381858888f19350505050158015610484573d6000803e3d6000fd5b507f56ad8efd8f95cafa7e4b68ea6054961468aeecd7617df5a34f31a432222e555c600460009054906101000a900473ffffffffffffffffffffffffffffffffffffffff16826040516104d89291906105bf565b60405180910390a150565b6104ec81610754565b82525050565b6104fb81610718565b82525050565b600061050e601c836106b1565b9150610519826107b9565b602082019050919050565b60006105316017836106b1565b915061053c826107e2565b602082019050919050565b60006105546021836106b1565b915061055f8261080b565b604082019050919050565b60006105776018836106b1565b91506105828261085a565b602082019050919050565b600061059a6017836106b1565b91506105a582610883565b602082019050919050565b6105b98161074a565b82525050565b60006040820190506105d460008301856104e3565b6105e160208301846105b0565b9392505050565b60006040820190506105fd60008301856104f2565b61060a60208301846105b0565b9392505050565b6000602082019050818103600083015261062a81610501565b9050919050565b6000602082019050818103600083015261064a81610524565b9050919050565b6000602082019050818103600083015261066a81610547565b9050919050565b6000602082019050818103600083015261068a8161056a565b9050919050565b600060208201905081810360008301526106aa8161058d565b9050919050565b600082825260208201905092915050565b60006106cd8261074a565b91506106d88361074a565b9250827fffffffffffffffffffffffffffffffffffffffffffffffffffffffffffffffff0382111561070d5761070c61078a565b5b828201905092915050565b60006107238261072a565b9050919050565b600073ffffffffffffffffffffffffffffffffffffffff82169050919050565b6000819050919050565b600061075f82610766565b9050919050565b600061077182610778565b9050919050565b60006107838261072a565b9050919050565b7f4e487b7100000000000000000000000000000000000000000000000000000000600052601160045260246000fd5b7f446561646c696e6520666f72207374616b696e67206973207061737400000000600082015250565b7f4469646e2774207374616b6520616e7920616d6f756e74000000000000000000600082015250565b7f5374616b652062616c616e6365206e6f7420757020746f207468726573686f6c60008201527f6400000000000000000000000000000000000000000000000000000000000000602082015250565b7f5374616b696e67206973207374696c6c206f6e676f696e670000000000000000600082015250565b7f4e65656420746f207374616b6520616e20616d6f756e7400000000000000000060008201525056fea2646970667358221220a950d3a026c9c38c56672a34886b9e653024a04bad641ce2a304780a1932e05464736f6c63430008040033",
  "linkReferences": {},
  "deployedLinkReferences": {}
}